:1000000049EF01F05744545F54494D454F55540052
:100010004D434C525F46524F4D5F534C4545500047
:100020004D434C525F46524F4D5F52554E004E4F1E
:10003000524D414C5F504F5745525F555000425210
:100040004F574E4F55545F52455354415254000040
:100050005744545F46524F4D5F534C454550000046
:1000600052455345545F494E535452554354494F9A
:100070004E00756E6B6E6F776E210000500ED36E62
:100080009B9C9B9EC050C00B0109C06EC08EC2805D
:10009000C150F00BC16E010E0F01386F000E3C6FA6
:1000A000396F3A6F3B6FC08E416B426BC66AD1802D
:1000B000000175EF01F0EA6A340EE96EEF5011E0CD
:1000C000010E016EBF0E006E0400002EFDD7012E42
:1000D000F9D74A0E006E002EFED700000400EF2E66
:1000E000EFD71200336A3C0E616EF19E010E346E42
:1000F000E2DF938481B402D0010E3326938681B669
:1001000002D0020E3326938881B802D0040E332623
:10011000938A81BA02D0080E332633C001F0120050
:10012000030E0C6E890E0B6E030E0E6E670E0D6EB7
:10013000030E106E400E0F6E030E126E120E116E35
:10014000020E146EE00E136E020E166EAB0E156EDE
:10015000020E186E720E176E020E1A6E390E196E9E
:10016000020E1C6E1B6A010E1E6EC90E1D6E010E64
:10017000206E950E1F6E010E226E650E216E010E11
:10018000246E390E236E010E266E110E256E286A1E
:10019000EE0E276E020E2A6E296A8DEF01F0356A87
:1001A000346A3334006E0036FC0E0016C250830BE6
:1001B0000010C26E0400020E006E002EFED700D0AA
:1001C000366A36500F0809E3C282C2B2FED7C35066
:1001D0003426C4503522362AF4D7080E3424376E1C
:1001E000000E3520386E3830036E3730026E033221
:1001F000023203320232033202320F0E031602C001
:1002000001F003C002F0C9EF01F09EA8FED7AD6E69
:100210001200929E898E0A0E346E4DDF010EF5DFBC
:10022000050EF3DF000EF1DF010EEFDFFF0EEDDF55
:10023000000EEBDFDD0EE9DFFA0EE7DF0A0E346EAB
:100240003ADF929E899E94928B9294908B80D5EF08
:1002500001F0929E898E0A0E346E2DDF010ED5DFDD
:10026000050ED3DF000ED1DF010ECFDF000ECDDF94
:10027000000ECBDF9C0EC9DF0A0EC7DF0A0E346EFC
:100280001ADF929E899E94928B8294908B90D7EFE6
:1002900001F0F86AD09EEA6AE96A500ED36E9B9C20
:1002A0009B9E0A6AB896190EAF6EA60EAC6E900EA3
:1002B000AB6EC150F00BC16E000E0F01386F3C6F7A
:1002C000396F3A6F3B6F776A786A796A046A056AB0
:1002D000D0500F0BD0A8000ED080D082D088D88606
:1002E000D888316E04000001C9D6FCDE01C02CF0B4
:1002F000326A32502C5C10E394928B8294908B8003
:10030000FA0E346ED8DE94928B9294908B90FA0E03
:10031000346ED1DE322AEDD703D7D0500F0BD0A8E0
:10032000000ED080D082D088D886D8882B6E949248
:100330008B8294908B80020E336EFA0E346EBBDE8D
:10034000332EFBD7C050C00B0109C06EC08EC280D7
:10035000C150F00BC16E010E0F01386F000E3C6FE3
:10036000396F3A6F3B6FC08E0001BCDE01C02CF0CC
:10037000D8902C34036A0B0FE96E000E0320EA6E4E
:10038000ECCF03F0ED52EFCF2DF003C02EF0336A27
:1003900006D702C030F001C02FF030502E5C06E3CB
:1003A00003E12D502F5C02E234D701D052D7C29026
:0803B00003000000B2D7FFD7E3
:020000040030CA
:0E00000000280124003F00000FC00FE00F4059
:00000001FF
;PIC18F26K22
;CRC=B12A  CREATED="15-Oct-19 17:42"
