:1000000047EF01F05744545F54494D454F55540054
:100010004D434C525F46524F4D5F534C4545500047
:100020004D434C525F46524F4D5F52554E004E4F1E
:10003000524D414C5F504F5745525F555000425210
:100040004F574E4F55545F52455354415254000040
:100050005744545F46524F4D5F534C454550000046
:1000600052455345545F494E535452554354494F9A
:100070004E00756E6B6E6F776E210000500ED36E62
:100080009B9C9B9EC050C00B0109C06EC08EC2805D
:10009000C150F00BC16E010E0F01386F000E396FA9
:1000A0003A6FC08E416B426BC66AD18000016DEF22
:1000B00001F0EA6A360EE96EEF5011E0010E016EB2
:1000C000BF0E006E0400002EFDD7012EF9D74A0E98
:1000D000006E002EFED700000400EF2EEFD71200B6
:1000E000356A3C0E616EF19E010E366EE2DF93843E
:1000F00081B402D0010E3526938681B602D0020E5D
:100100003526938881B802D0040E3526938A81BAA9
:1001100002D0080E352635C001F01200030E0C6E19
:10012000890E0B6E030E0E6E670E0D6E030E106EB3
:10013000400E0F6E030E126E120E116E020E146E32
:10014000E00E136E020E166EAB0E156E020E186EDA
:10015000720E176E020E1A6E390E196E020E1C6E9A
:100160001B6A010E1E6EC90E1D6E010E206E950ECD
:100170001F6E010E226E650E216E010E246E390E69
:10018000236E010E266E110E256E286AEE0E276E66
:10019000020E2A6E296A85EF01F0376A366A353415
:1001A000006E0036FC0E0016C250830B0010C26EAB
:1001B0000400020E006E002EFED700D0386A3850C0
:1001C0000F0809E3C282C2B2FED7C3503626C4501C
:1001D0003722382AF4D7080E3624396E000E37201D
:1001E0003A6E3A30036E3930026E03320232033215
:1001F0000232033202320F0E031602C001F003C0B6
:1002000002F0BDEF01F09EA8FED7AD6E1200929EE7
:10021000898E0A0E366E4DDF010EF5DF050EF3DF17
:10022000000EF1DF010EEFDFFF0EEDDF000EEBDF62
:10023000DD0EE9DFFA0EE7DF0A0E366E3ADF929E38
:10024000899E94928B9294908B80C9EF01F0929E3C
:10025000898E0A0E366E2DDF010ED5DF050ED3DF37
:10026000000ED1DF010ECFDF000ECDDF000ECBDFA1
:100270009C0EC9DF0A0EC7DF0A0E366E1ADF929E89
:10028000899E94928B8294908B90CBEF01F0F86AC8
:10029000D09E500ED36E9B9C9B9E0A6AB896190EF8
:1002A000AF6EA60EAC6E900EAB6E2E6A2D6A0F016D
:1002B000386B396B3A6B776A786A796A046A056ACF
:1002C000D0500F0BD0A8000ED080D082D088D88616
:1002D000D888336E04000001D1D602DF01C02CF0B3
:1002E000346A34502C5C10E394928B8294908B800F
:1002F000FA0E366EDEDE94928B9294908B90FA0E0C
:10030000366ED7DE342AEDD709D7D0500F0BD0A8E0
:10031000000ED080D082D088D886D8882B6E949258
:100320008B8294908B80020E356EFA0E366EC1DE93
:10033000352EFBD7C050C00B0109C06EC08EC280E5
:10034000C150F00BC16E010E0F01386F000E396FF6
:100350003A6FC08E0001C4DE01C02CF0D8902C345E
:10036000036A0B0FE96E000E0320EA6EECCF30F04B
:10037000ED52EFCF2FF0356A10D702C032F001C036
:1003800031F03250305C06E303E12F50315C02E281
:100390003ED701D05CD7C290D3CF00F0D39E0300EC
:0A03A00000C0D3FF0000B1D7030036
:020000040030CA
:0E00000000280627003F81000FC00FE00F40D0
:00000001FF
;PIC18F26K22
;CRC=E74D  CREATED="18-Oct-19 09:51"
